:100000000C942A000C9478020C9447000C9447003E
:100010000C9447000C9447000C9447000C94470044
:100020000C9447000C9447000C9447000C94470034
:100030000C9447000C9447000C9447000C94470024
:100040000C9447000C9447000C9447000C94470014
:100050000C94470011241FBECFE5D8E0DEBFCDBF12
:1000600010E0A0E6B0E0E2E5F5E002C005900D92F8
:10007000A236B107D9F720E0A2E6B0E001C01D9298
:10008000A236B207E1F70E9471010C94A7020C940A
:10009000000060E081E40E94E10061E081E40E94F0
:1000A000E10062E081E40E94E10060E082E40E94FD
:1000B000E10061E082E40E94E10062E082E40E94EB
:1000C000E1001BBA18BA62E084E40E94DD000E94DD
:1000D0006C020895809160008130E1F48299FECF36
:1000E000813029F418BA8BBB85E00E949002809180
:1000F0006000813029F482E08BBB80E00E94ED003B
:1001000080916000813031F784E08BBB85E00E94F4
:100110009002E0CFC89B1FC01BBA62E082E40E943D
:10012000E5000E943A01C1E0C8BB62E081E40E94A0
:10013000E50085E00E94900262E081E40E94E9000F
:100140000E943A0184E088BBCBBB85E00E9490020C
:10015000C0936000BFCFC99B1FC01BBA62E082E49E
:100160000E94E5000E943A01C1E0C8BB62E081E460
:100170000E94E50085E00E94900262E081E40E9416
:10018000E9000E943A0184E088BBCBBB85E00E9475
:100190009002C09360009ECFCA9B9CCF60E082E437
:1001A0000E94E50062E081E40E94E50085E00E9493
:1001B000900281E0809360008DCF40E00E94780142
:1001C000089541E00E947801089541E00E94F20103
:1001D000089540E00E94F2010895CF93882319F01A
:1001E000813021F145C08BB3C2E08C278BBB81E00D
:1001F0000E9490028BB38C278BBB81E00E949002FF
:100200008BB38C278BBB81E00E9490028BB38C2731
:100210008BBB81E00E9490028BB38C278BBB81E06B
:100220000E9490028BB3C827CBBB22C088B3C2E028
:100230008C2788BB81E00E94900288B38C2788BB02
:1002400081E00E94900288B38C2788BB81E00E94E5
:10025000900288B38C2788BB81E00E94900288B30B
:100260008C2788BB81E00E94900288B3C827C8BB56
:10027000CF910895CF938BB3C2E08C278BBB88B30B
:100280008C2788BB81E00E9490028BB38C278BBBAC
:1002900088B38C2788BB81E00E9490028BB38C27A7
:1002A0008BBB88B38C2788BB81E00E9490028BB304
:1002B0008C278BBB88B38C2788BB81E00E9490027F
:1002C0008BB38C278BBB88B38C2788BB81E00E94C3
:1002D00090028BB38C278BBB88B3C827C8BBCF9148
:1002E00008950E9449000E946A0080E090E008950D
:1002F000823431F118F4813439F008958334E1F116
:10030000843409F454C0089541110CC02AB381E02B
:1003100090E002C0880F991F6A95E2F780958223CA
:100320008ABB0895413009F05CC02AB381E090E0B7
:1003300002C0880F991F6A95E2F7822B8ABB089545
:1003400041110CC027B381E090E002C0880F991FD3
:100350006A95E2F78095822387BB0895413009F0C2
:1003600040C027B381E090E002C0880F991F6A95D2
:10037000E2F7822B87BB089541110CC024B381E0C2
:1003800090E002C0880F991F6A95E2F7809582235A
:1003900084BB0895413029F524B381E090E002C088
:1003A000880F991F6A95E2F7822B84BB089541114B
:1003B0000CC021B381E090E002C0880F991F6A95BC
:1003C000E2F78095822381BB0895413051F421B337
:1003D00081E090E002C0880F991F6A95E2F7822BB6
:1003E00081BB0895823431F118F4813439F00895D5
:1003F0008334E1F1843409F454C0089541110CC0F0
:100400002BB381E090E002C0880F991F6A95E2F754
:10041000809582238BBB0895413009F05CC02BB3DB
:1004200081E090E002C0880F991F6A95E2F7822B65
:100430008BBB089541110CC028B381E090E002C04D
:10044000880F991F6A95E2F78095822388BB0895EB
:10045000413009F040C028B381E090E002C0880F2D
:10046000991F6A95E2F7822B88BB089541110CC051
:1004700025B381E090E002C0880F991F6A95E2F7EA
:100480008095822385BB0895413029F525B381E00D
:1004900090E002C0880F991F6A95E2F7822B85BB16
:1004A000089541110CC022B381E090E002C0880F92
:1004B000991F6A95E2F78095822382BB08954130A7
:1004C00051F422B381E090E002C0880F991F6A9531
:1004D000E2F7822B82BB08958FB78F778FBF8BB7E0
:1004E00080648BBF83E085BF8FB780688FBF08951E
:1004F0001F920F920FB60F921124109260000F906E
:100500000FBE0F901F90189585E082BF85E883BFCE
:1005100008B600FEFDCF88B7816088BF13BE08957E
:100520001F93CF93DF93182FC0E0D0E003C00E9449
:1005300084022196812F90E0880F991F880F991FC0
:10054000C817D907A4F3DF91CF911F910895F894AC
:02055000FFCFDB
:020552000100A6
:00000001FF
